:020000040800F2
:10000000A0110020D95D0008515C0008535C000875
:10001000555C0008575C0008595C000800000000AF
:100020000000000000000000000000005B5C000811
:100030005D5C0008000000005F5C0008615C000877
:10004000F95D0008FD5D0008015E0008055E00081E
:10005000095E00080D5E0008115E0008155E0008CC
:10006000195E00081D5E0008215E0008255E00087C
:10007000295E00082D5E0008315E0008355E00082C
:10008000395E00083D5E0008655C0008415E0008BE
:10009000455E0008775C0008795C0008495E00084E
:1000A0004D5E0008515E0008555E0008595E00086C
:1000B0005D5E0008615E0008655E0008695E00081C
:1000C0006D5E0008715E0008755E0008795E0008CC
:1000D0007D5E0008815E0008855E0008895E00087C
:1000E0008D5E0008915E0008955E0008995E00082C
:1000F0009D5E0008A15E0008A55E0008A95E0008DC
:10010000AD5E0008B15E0008815C0008B55E0008C5
:10011000B95E0008BD5E0008875C0008C15E00088B
:10012000C55E0008C95E0008CD5E0008D15E00080B
:10013000D55E0008D95E0008DD5E0008E15E0008BB
:10014000E55E0008E95E0008ED5E0008F15E00086B
:10015000F55E0008F95E0008FD5E0008015F00081A
:10016000055F0008095F00080D5F0008115F0008C7
:10017000155F0008195F00081D5F0008215F000877
:10018000255F0008295F00082D5F0008315F000827
:10019000355F000800000000395F00083D5F00087F
:1001A000415F0008455F0008495F00084D5F000897
:1001B000515F0008555F0008595F00085D5F000847
:1001C000615F0008655F0008695F00086D5F0008F7
:1001D000715F0008755F000800000000D40FC93A85
:1001E000C70F493BC1CB963B890FC93B3053FB3B03
:1001F00059CB163C02ED2F3C900E493C0030623C3E
:100200004B517B3C38398A3CB6C9963C1C5AA33CBE
:1002100069EAAF3C9B7ABC3CB00AC93CA69AD53C83
:100220007B2AE23C2DBAEE3CB949FB3C90EC033D05
:100230002F340A3DB87B103D2CC3163D880A1D3D66
:10024000CC51233DF698293D07E02F3DFC26363D55
:10025000D56D3C3D91B4423D2FFB483DAF414F3DF4
:100260000E88553D4CCE5B3D6814623D625A683D38
:1002700038A06E3DE9E5743D742B7B3D6CB8803D44
:100280000ADB833D94FD863D0A208A3D6A428D3D0E
:10029000B464903DE786933D05A9963D0ACB993D10
:1002A000F9EC9C3DCF0EA03D8C30A33D3052A63DD5
:1002B000BA73A93D2B95AC3D80B6AF3DBBD7B23DDF
:1002C000DAF8B53DDD19B93DC33ABC3D8D5BBF3DA4
:1002D000397CC23DC69CC53D36BDC83D86DDCB3DA3
:1002E000B7FDCE3DC81DD23DB93DD53D895DD83D58
:1002F000377DDB3DC49CDE3D2EBCE13D76DBE43D3D
:100300009AFAE73D9A19EB3D7638EE3D2E57F13DCE
:10031000C075F43D2C94F73D73B2FA3D92D0FD3D8B
:100320004577003E2E06023E0295033EC223053E5F
:100330006EB2063E0541083E86CF093EF35D0B3E98
:100340004AEC0C3E8B7A0E3EB708103ECC96113E1E
:10035000CA24133EB2B2143E8340163E3DCE173E31
:10036000E05B193E6BE91A3EDE761C3E38041E3E09
:100370007B911F3EA51E213EB6AB223EAD38243EEA
:100380008CC5253E5152273EFCDE283E8D6B2A3E11
:1003900004F82B3E61842D3EA2102F3EC99C303EB6
:1003A000D428323EC4B4333E9840353E50CC363E1D
:1003B000EC57383E6CE3393ECF6E3B3E15FA3C3E7F
:1003C0003E853E3E4910403E379B413E0726433E18
:1003D000B9B0443E4D3B463EC2C5473E1850493E2B
:1003E0004FDA4A3E67644C3E60EE4D3E38784F3EF1
:1003F000F101513E898B523E0115543E589E553EA7
:100400008F27573EA4B0583E97395A3E6AC25B3E8A
:100410001A4B5D3EA8D35E3E135C603E5CE4613ED9
:10042000836C633E86F4643E667C663E2204683ECE
:10043000BA8B693E2F136B3E7F9A6C3EAB216E3EAA
:10044000B2A86F3E942F713E51B6723EE83C743EA6
:100450005AC3753EA649773ECCCF783ECB557A3EFF
:10046000A4DB7B3E56617D3EE1E67E3E2236803E49
:10047000C0F8803E4ABB813EC07D823E2240833E22
:100480007002843EAAC4843ECE86853EDF48863E06
:10049000DA0A873EC1CC873E938E883E5050893E13
:1004A000F8118A3E8AD38A3E07958B3E6E568C3E63
:1004B000C0178D3EFCD88D3E229A8E3E325B8F3E19
:1004C0002C1C903E10DD903EDD9D913E945E923E50
:1004D000351F933EBFDF933E31A0943E8D60953E25
:1004E000D220963E00E1963E17A1973E1661983EB7
:1004F000FE20993ECEE0993E86A09A3E27609B3E24
:10050000AF1F9C3E20DF9C3E789E9D3EB85D9E3E88
:10051000DF1C9F3EEEDB9F3EE59AA03EC259A13E06
:100520008718A23E33D7A23EC595A33E3F54A43EB2
:100530009F12A53EE5D0A53E128FA63E254DA73EB3
:100540001F0BA83EFEC8A83EC486A93E6F44AA3E23
:100550000102AB3E77BFAB3ED47CAC3E153AAD3E1C
:100560003CF7AD3E49B4AE3E3A71AF3E102EB03EC0
:10057000CBEAB03E6BA7B13EEF63B23E5820B33E2C
:10058000A5DCB33ED698B43EEC54B53EE610B63E7C
:10059000C3CCB63E8488B73E2A44B83EB2FFB83ECC
:1005A0001EBBB93E6E76BA3EA031BB3EB6ECBB3E3A
:1005B000AFA7BC3E8B62BD3E4A1DBE3EEBD7BE3EE2
:1005C0006F92BF3ED54CC03E1E07C13E48C1C13EE2
:1005D000557BC23E4435C33E15EFC33EC8A8C43E5A
:1005E0005C62C53ED21BC63E29D5C63E628EC73E62
:1005F0007C47C83E7700C93E53B9C93E1072CA3E17
:10060000AE2ACB3E2CE3CB3E8B9BCC3ECA53CD3E99
:10061000EA0BCE3EEAC3CE3ECA7BCF3E8A33D03E03
:100620002AEBD03EAAA2D13E095AD23E4811D33E6F
:1006300067C8D33E647FD43E4136D53EFDECD53EFF
:1006400099A3D63E135AD73E6B10D83EA3C6D83EC8
:10065000B97CD93EAD32DA3E80E8DA3E319EDB3EEF
:10066000C153DC3E2E09DD3E79BEDD3EA273DE3E87
:10067000A928DF3E8DDDDF3E4F92E03EEE46E13EB3
:100680006AFBE13EC4AFE23EFA63E33E0E18E43E8D
:10069000FECBE43ECB7FE53E7533E63EFBE6E63E31
:1006A0005D9AE73E9C4DE83EB700E93EAEB3E93EB9
:1006B0008166EA3E3019EB3EBBCBEB3E217EEC3E41
:1006C0006330ED3E80E2ED3E7994EE3E4C46EF3EE7
:1006D000FBF7EF3E85A9F03EEA5AF13E290CF23EC7
:1006E00043BDF23E386EF33E071FF43EB1CFF43EF9
:1006F0003580F53E9330F63ECBE0F63EDC90F73E9B
:10070000C840F83E8EF0F83E2DA0F93EA54FFA3EC7
:10071000F7FEFA3E22AEFB3E275DFC3E040CFD3E9A
:10072000BBBAFD3E4A69FE3EB217FF3EF3C5FF3E2F
:10073000063A003FFF90003FE4E7003FB53E013F2F
:100740007395013F1CEC013FB142023F3299023FD9
:100750009FEF023FF845033F3D9C033F6DF2033F8F
:100760008948043F919E043F84F4043F624A053F58
:100770002CA0053FE2F5053F824B063F0EA1063F48
:1007800086F6063FE84B073F36A1073F6FF6073F67
:10079000924B083FA1A0083F9BF5083F7F4A093FC5
:1007A0004E9F093F09F4093FAD480A3F3D9D0A3F6E
:1007B000B7F10A3F1C460B3F6B9A0B3FA5EE0B3F70
:1007C000C9420C3FD7960C3FD0EA0C3FB33E0D3FD9
:1007D00081920D3F38E60D3FDA390E3F658D0E3FB1
:1007E000DBE00E3F3B340F3F84870F3FB8DA0F3F0B
:1007F000D52D103FDC80103FCDD3103FA726113FF1
:100800006B79113F19CC113FB01E123F3071123F6E
:100810009AC3123FEE15133F2A68133F50BA133F95
:100820005F0C143F585E143F39B0143F0402153F6B
:10083000B753153F54A5153FD9F6153F4748163F06
:100840009F99163FDFEA163F073C173F188D173F69
:1008500012DE173FF52E183FC07F183F73D0183FA8
:100860000F21193F9471193F00C2193F55121A3FC9
:1008700093621A3FB8B21A3FC6021B3FBB521B3FDE
:1008800099A21B3F5FF21B3F0C421C3FA2911C3FF1
:100890001FE11C3F84301D3FD17F1D3F06CF1D3F10
:1008A000221E1E3F266D1E3F12BC1E3FE50A1F3F43
:1008B0009F591F3F41A81F3FCBF61F3F3B45203F9D
:1008C0009393203FD2E1203FF92F213F067E213F25
:1008D000FBCB213FD719223F9967223F43B5223FE7
:1008E000D302233F4B50233FA99D233FEEEA233FF2
:1008F0001A38243F2C85243F25D2243F041F253F4E
:10090000CB6B253F77B8253F0A05263F8451263F0C
:10091000E39D263F2AEA263F5636273F6882273F37
:1009200061CE273F401A283F0566283FB0B1283FD7
:1009300041FD283FB848293F1594293F57DF293FFB
:10094000802A2A3F8E752A3F82C02A3F5B0B2B3FAD
:100950001B562B3FBFA02B3F4AEB2B3FB9352C3FFB
:100960000F802C3F49CA2C3F69142D3F6F5E2D3FED
:1009700059A82D3F29F22D3FDE3B2E3F78852E3F93
:10098000F7CE2E3F5B182F3FA5612F3FD3AA2F3FF5
:10099000E6F32F3FDE3C303FBB85303F7CCE303F1F
:1009A0002217313FAD5F313F1DA8313F71F0313F1C
:1009B000AA38323FC780323FC9C8323FAF10333FF9
:1009C0007A58333F29A0333FBCE7333F342F343FBD
:1009D0008F76343FCFBD343FF304353FFB4B353F7B
:1009E000E792353FB8D9353F6C20363F0467363F34
:1009F0007FAD363FDFF3363F233A373F4A80373FFC
:100A000055C6373F430C383F1652383FCB97383FD7
:100A100065DD383FE122393F4268393F85AD393FD6
:100A2000ACF2393FB7373A3FA47C3A3F75C13A3F01
:100A300029063B3FC14A3B3F3B8F3B3F98D33B3F5F
:100A4000D9173C3FFC5B3C3F03A03C3FECE33C3F01
:100A5000B8273D3F676B3D3FF9AE3D3F6EF23D3FEE
:100A6000C5353E3FFF783E3F1BBC3E3F1BFF3E3F30
:100A7000FC413F3FC0843F3F67C73F3FF009403FD5
:100A80005C4C403FA98E403FDAD0403FEC12413FE2
:100A9000E154413FB796413F70D8413F0B1A423F66
:100AA000895B423FE89C423F29DE423F4C1F433F67
:100AB0005160433F38A1433F00E2433FAB22443FF4
:100AC0003763443FA5A3443FF5E3443F2624453F15
:100AD0003964453F2DA4453F03E4453FBB23463FD2
:100AE0005463463FCEA2463F2AE2463F6721473F36
:100AF0008560473F849F473F65DE473F271D483F4E
:100B0000CA5B483F4E9A483FB3D8483FFA16493F20
:100B10002155493F2993493F12D1493FDC0E4A3FB5
:100B2000874C4A3F138A4A3F7FC74A3FCC044B3F1A
:100B3000FA414B3F097F4B3FF8BB4B3FC7F84B3F58
:100B400078354C3F08724C3F79AE4C3FCBEA4C3F76
:100B5000FD264D3F10634D3F029F4D3FD5DA4D3F7F
:100B600089164E3F1C524E3F908D4E3FE4C84E3F7B
:100B700017044F3F2B3F4F3F1F7A4F3FF4B44F3F77
:100B8000A8EF4F3F3B2A503FAF64503F039F503F79
:100B900037D9503F4A13513F3D4D513F1087513F88
:100BA000C2C0513F54FA513FC633523F186D523FB5
:100BB00049A6523F59DF523F4918533F1851533FFE
:100BC000C789533F55C2533FC3FA533F0F33543F76
:100BD0003B6B543F47A3543F31DB543FFB12553F1F
:100BE000A44A553F2C82553F93B9553FD9F0553F04
:100BF000FE27563F025F563FE595563FA7CC563F2E
:100C00004803573FC739573F2670573F63A6573FA2
:100C10007FDC573F7912583F5348583F0B7E583F6F
:100C2000A1B3583F17E9583F6A1E593F9C53593F9B
:100C3000AD88593F9CBD593F6AF2593F16275A3F2C
:100C4000A05B5A3F09905A3F50C45A3F75F85A3F2B
:100C5000792C5B3F5A605B3F1A945B3FB8C75B3FA0
:100C600034FB5B3F8E2E5C3FC7615C3FDD945C3F95
:100C7000D1C75C3FA3FA5C3F532D5D3FE15F5D3F11
:100C80004D925D3F97C45D3FBEF65D3FC3285E3F1A
:100C9000A65A5E3F678C5E3F05BE5E3F81EF5E3FBA
:100CA000DB205F3F12525F3F27835F3F19B45F3FF6
:100CB000E9E45F3F9615603F2146603F8976603FDB
:100CC000CFA6603FF2D6603FF206613FD036613F6B
:100CD0008A66613F2296613F98C5613FEAF4613FB1
:100CE0001A24623F2653623F1082623FD7B0623FB0
:100CF0007BDF623FFC0D633F5A3C633F956A633F75
:100D0000AC98633FA1C6633F73F4633F2122643F05
:100D1000AC4F643F147D643F59AA643F7BD7643F66
:100D20007904653F5431653F0B5E653FA08A653F9E
:100D300010B7653F5EE3653F880F663F8E3B663FB9
:100D40007167663F3093663FCCBE663F45EA663FBB
:100D50009915673FCA40673FD86B673FC196673FA9
:100D600087C1673F2AEC673FA816683F0341683F89
:100D7000396B683F4C95683F3CBF683F07E9683F67
:100D8000AE12693F323C693F9165693FCC8E693F45
:100D9000E4B7693FD7E0693FA7096A3F52326A3F2B
:100DA000D95A6A3F3C836A3F7BAB6A3F95D36A3F1F
:100DB0008CFB6A3F5E236B3F0C4B6B3F95726B3F26
:100DC000FB996B3F3BC16B3F58E86B3F500F6C3F4B
:100DD00024366C3FD45C6C3F5E836C3FC5A96C3F8E
:100DE00007D06C3F24F66C3F1D1C6D3FF2416D3FF8
:100DF000A1676D3F2D8D6D3F93B26D3FD5D76D3F90
:100E0000F2FC6D3FEB216E3FBE466E3F6D6B6E3F59
:100E1000F88F6E3F5DB46E3F9ED86E3FBAFC6E3F5A
:100E2000B0206F3F83446F3F30686F3FB88B6F3F98
:100E30001BAF6F3F5AD26F3F73F56F3F6718703F1C
:100E4000373B703FE15D703F6680703FC6A2703FE8
:100E500002C5703F17E7703F0809713FD42A713F00
:100E60007A4C713FFB6D713F578F713F8EB0713F70
:100E70009FD1713F8CF2713F5213723FF433723F36
:100E80007054723FC774723FF894723F04B5723F5A
:100E9000EBD4723FACF4723F4714733FBE33733FE1
:100EA0000E53733F3972733F3F91733F1FB0733FCF
:100EB000D9CE733F6EED733FDD0B743F272A743F2D
:100EC0004B48743F4966743F2284743FD5A1743FF8
:100ED00062BF743FC9DC743F0BFA743F2717753F3C
:100EE0001D34753FED50753F976D753F1C8A753FFA
:100EF0007BA6753FB3C2753FC6DE753FB3FA753F3B
:100F00007A16763F1B32763F974D763FEC68763FF8
:100F10001B84763F249F763F07BA763FC4D4763F42
:100F20005BEF763FCC09773F1724773F3C3E773F16
:100F30003A58773F1372773FC58B773F51A5773F7C
:100F4000B7BE773FF7D7773F10F1773F040A783F76
:100F5000D122783F773B783FF853783F526C783F07
:100F60008684783F939C783F7BB4783F3BCC783F36
:100F7000D6E3783F4AFB783F9812793FBF29793F03
:100F8000C040793F9A57793F4E6E793FDC84793F74
:100F9000439B793F83B1793F9DC7793F91DD793F8D
:100FA0005EF3793F04097A3F841E7A3FDD337A3F4E
:100FB00010497A3F1C5E7A3F02737A3FC1877A3FBD
:100FC000599C7A3FCBB07A3F16C57A3F3AD97A3FDF
:100FD00037ED7A3F0E017B3FBE147B3F48287B3FB5
:100FE000AB3B7B3FE74E7B3FFC617B3FEA747B3F43
:100FF000B2877B3F539A7B3FCDAC7B3F20BF7B3F8B
:101000004DD17B3F53E37B3F31F57B3FE9067C3F8E
:101010007A187C3FE5297C3F283B7C3F444C7C3F51
:101020003A5D7C3F086E7C3FB07E7C3F318F7C3FD9
:101030008A9F7C3FBDAF7C3FC9BF7C3FAECF7C3F2A
:101040006CDF7C3F03EF7C3F73FE7C3FBC0D7D3F3C
:10105000DD1C7D3FD82B7D3FAC3A7D3F59497D3F1C
:10106000DE577D3F3D667D3F74747D3F85827D3FC9
:101070006E907D3F309E7D3FCCAB7D3F40B97D3F44
:101080008CC67D3FB2D37D3FB1E07D3F88ED7D3F93
:1010900038FA7D3FC2067E3F24137E3F5E1F7E3FAF
:1010A000722B7E3F5E377E3F23437E3FC14E7E3FA5
:1010B000385A7E3F88657E3FB0707E3FB17B7E3F71
:1010C0008B867E3F3D917E3FC99B7E3F2DA67E3F16
:1010D00069B07E3F7FBA7E3F6DC47E3F34CE7E3F97
:1010E000D4D77E3F4CE17E3F9DEA7E3FC7F37E3FF3
:1010F000C9FC7E3FA4057F3F580E7F3FE4167F3F2B
:10110000491F7F3F87277F3F9D2F7F3F8D377F3F41
:10111000543F7F3FF4467F3F6D4E7F3FBF557F3F3B
:10112000E95C7F3FEC637F3FC76A7F3F7B717F3F16
:1011300008787F3F6D7E7F3FAB847F3FC28A7F3FD1
:10114000B1907F3F78967F3F189C7F3F91A17F3F72
:10115000E3A67F3F0DAC7F3F0FB17F3FEAB57F3FF6
:101160009EBA7F3F2ABF7F3F8FC37F3FCCC77F3F61
:10117000E2CB7F3FD1CF7F3F98D37F3F37D77F3FB1
:10118000AFDA7F3F00DE7F3F29E17F3F2BE47F3FE7
:1011900005E77F3FB8E97F3F43EC7F3FA7EE7F3F06
:1011A000E3F07F3FF8F27F3FE6F47F3FACF67F3F0E
:1011B0004AF87F3FC1F97F3F11FB7F3F39FC7F3FFA
:1011C00039FD7F3F13FE7F3FC4FE7F3F4EFF7F3FD1
:1011D000B1FF7F3FECFF7F3F0000803F603000EBBE
:1011E0008100006800F0F8407047603000EB81003B
:1011F000016821F000410A4302607047C06800F4B2
:101200004060401E8041C00F7047CB0D10B51430B8
:1012100003F004031818090D01F01F0103680724E7
:101220008C40A34302FA01F11943016010BDF8B5E7
:1012300004460020002600900CB90120F2BD04F104
:101240005805686828B9204600F015FE0020A860FF
:10125000287021688868800004D58A68DFF8380320
:1012600002408A6021688868C00012D48A68DFF86A
:101270002C03024042F080528A60DFF82413DFF82A
:1012800024230868B0FBF2F2521C5200009200F0D6
:101290002BFD21688868C00008D46A6842F01002FB
:1012A0006A600126A86840F00100A8608B68686841
:1012B0009B08C20600D4D80700F1BB806A6822F4FC
:1012C000807242F002026A608868C0072CD4DFF89E
:1012D000D822B1F1A04F18BF914207D1DFF8CC025C
:1012E000DFF8CC7200683F6838430CE0DFF8C402D6
:1012F000DFF8C47200683F68DFF8C0C2DCF800C0E5
:1013000038434CEA000010F001000DD1B1F1A04FBC
:1013100016BF9142DFF82815DFF828150A686068C3
:1013200022F47C1202430A6004F12402607F976970
:10133000E16892F800C047EA4037A0680F430743CE
:10134000BCF1010F47EA0C4703D15068401E47EA41
:101350004047906820B100F478700743D068074395
:101360002168DFF8E404D1F80CC000EA0C00074360
:10137000CF6021680F69106927F0406707430F614C
:10138000DB072168886840D400073ED4CB68DFF8CB
:10139000BC04277F0340107D43EA873343EA4003C0
:1013A000CB6020690028206801690CD041F48031AD
:1013B00001612168D1F8C03020699B0B40EA83337A
:1013C000C1F8C03009E021F4803101612068D0F813
:1013D000C010890B8903C0F8C010107F01280FD1FD
:1013E00023681F69106A516A6FF38A070743906A7E
:1013F0000F43D16A07430F4347F001071F6104E021
:101400002068016949084900016160690128206874
:10141000016B05D1226A0909521E42EA011101E05D
:101420000909090101630120696860F3010169602C
:1014300004E0686840F01000686001263046F2BDA4
:10144000F8B50546584E2868B0F1A04F16BFB04217
:10145000DFF8EC13DFF8EC1300F071F865D405F158
:1014600058073978012960D001203870284600F0EB
:10147000EFFB010058D100F05AF82968DFF8D023BB
:10148000B14218BF914200D11CB9796821F4801192
:1014900079607968CB0446BFB96821F00601002164
:1014A000B9601C2329680B600021397029684B68DA
:1014B00023F01C034B60A969082929684B680CBFFD
:1014C00043F0080343F004034B60E96B21B929683A
:1014D0004B6843F010034B6001232968B14218BFE9
:1014E000914204D1002C1CBF052C092C07D1CA68DD
:1014F000940101D500F029F800F043F8F2BD7C68B2
:1015000044F480147C60B14208BFDFF8482305D062
:1015100091420CBFDFF8F02601F10C021268940131
:1015200004D500F012F8F2BD28E00220F2BD7A687E
:10153000DFF8AC170A4042F480727A6070470C689A
:101540008068400704F01F0470477A6863F30D3227
:101550007A60AA69082A4A6807D122F020024A6004
:1015600029684A6842F0400206E022F040024A60E0
:1015700029684A6842F020024A60704700213970A9
:10158000F2BD2A68DFF8DC1793680B4043F00403D0
:101590009360704700000000C0FFFF5FC0FFFF7F47
:1015A00054000020400D03000001005008000050CE
:1015B00008010050080400500805005008060050BB
:1015C0000068006C70472DE9F84F0546DFF870821F
:1015D0002868DFF8709206680146B0F1A04F4F68A6
:1015E0001BBFDFF884078142404648460468B007C5
:1015F00004F01F040ED5B9070CD5E86DC10603D45D
:10160000E86D40F40060E865284600F09FFC29681A
:10161000022008607007DFF8F0A5DFF838B201D5C6
:10162000790703D4300748D5390746D5E86DC10698
:1016300003D4E86D40F40070E8652868FFF7DEFD2C
:10164000002834D02868DFF8201788421CBF804A61
:10165000904204D1002C1CBF052C092C01D1C1687B
:101660000AE0884208BF594605D0794A90420CBF2B
:10167000514600F10C010968890418D40246136828
:10168000190714D5816849070FD4426822F00C026B
:101690004260E86D20F48070E865E86DC10406D40E
:1016A000E86D40F00100E86501E000F0D5F828465B
:1016B00000F098FC29680C200860B00601D5B90636
:1016C00003D4700653D5790651D5E86DC10603D40D
:1016D000E86D40F40050E8652868C16C01F4C07101
:1016E000491E8941C90F0091FFF788FD2A68DFF87C
:1016F000783657499A4218BF8A4204D1002C1CBF41
:10170000062C072C01D1D36809E09A4208BFDA46BB
:1017100003D08A4218BF02F10C0ADAF800300099AF
:10172000F9B1990102D5E0B198041AD411460868BC
:10173000400616D5990214D4906800070FD451685A
:1017400021F060015160E86D20F48050E865E86D9B
:10175000C10506D4E86D40F00100E86501E000F045
:101760007BF8284600F0B2FC29686020086030064B
:101770000BD5390609D5E86D40F48030E865284678
:1017800000F0A5FC296880200860F0050CD5F9055B
:101790000AD5E86D40F40030E865284600F098FC72
:1017A00029684FF480700860B0050CD5B9050AD5DA
:1017B000E86D40F48020E865284600F08AFC29683E
:1017C0004FF400700860F00623D5F90621D5E86BC8
:1017D00088B1286864B1B0F1A04F1EBFDFF888154A
:1017E0008842C846D8F8000010F4604F03D10DE0DD
:1017F000C068C1070AD5E86D40F48060E865286ECE
:1018000040F002002866284600F064FC2968102099
:101810000860700512D5790510D5E86D40F4804058
:10182000E8654FF48061286E40F00800286628685B
:1018300001602846BDE8F24F00F04DBCBDE8F18FD5
:1018400008030050080700500740F0FFFDBFFFFFEE
:10185000000500500C000050E86D40F01000E865F5
:10186000286E40F0010028667047F8B50646002053
:1018700006F158050F46009000242978012901D16E
:101880000220F2BD0120287030688168490700F10C
:10189000B2817A6839689309303003F00C03181864
:1018A00002F01F02D0F800C01F239340C1F38461EF
:1018B0002CEA030301FA02F21A43026030688268DC
:1018C000816852074DD409074BD4BA68B2F1004F72
:1018D00008D139680022FFF798FC3068416941F06F
:1018E000004106E03968FFF790FC3068416921F05B
:1018F000004141613068C1683A69042A32D06030E1
:101900003B6800EB820CDFF86404DCF80020024046
:1019100003F0F8431343C9087A69480000F0060051
:101920008240134343F00043CCF8003031683A69F9
:10193000B869603101EB82010B6823F080731843B2
:101940000860387F01280CBF4FF00070002031681C
:101950003A69603101EB82010B6823F00073184390
:10196000086078E00021FFF739FC40033068214629
:1019700004D1FFF733FCC0F3846003E0FFF72EFCD3
:1019800000F04BF939684A030EBFC1F3846191FA44
:10199000A1F1B1FA81F1884204D13068002200211E
:1019A000FFF723FC00F046F9400304D100F042F9B0
:1019B000C0F3846003E000F03DF900F02EF93968CF
:1019C0004A030EBFC1F3846191FAA1F1B1FA81F12A
:1019D000884204D1306800220121FFF706FC00F0A4
:1019E00025F9400304D100F021F9C0F3846003E03D
:1019F00000F01CF900F011F939684A030EBFC1F379
:101A0000846191FAA1F1B1FA81F1884204D1306880
:101A100000220221FFF7E9FB00F004F9400304D1A2
:101A200000F000F9C0F3846005E000F0FBF890FAE4
:101A3000A0F0B0FA80F039684A030EBFC1F38461A8
:101A400091FAA1F1B1FA81F1884204D13068002203
:101A50000321FFF7CAFB31688868C00763D4FA68BE
:101A60003B68D1F8B0C0DFF808E302F01802C3F316
:101A700012002EFA02F22CEA000013400343C1F8D0
:101A8000B030F868DFF8EC1288424CD13868410376
:101A90000EBFC0F3846290FAA0F1B1FA81F2521C39
:101AA000012102F01F020A2A1BD2420306D1C0F311
:101AB0008462C0F38463C0F3846001E000F0A6F8A0
:101AC000521C5B1C920603F01F03401C02F0F842FC
:101AD000994000F01F00114300EB400041EA005123
:101AE0001DE0420306D1C0F38463C0F38462C0F3F7
:101AF000846001E000F08AF85B1C521C401C9B06CD
:101B000002F01F0200F01F0003F0F84391400A3872
:101B1000194300EB400041EA005141F00071BA68FE
:101B20003068FFF772FB3868DFF84C12084267D064
:101B30003168DFF84822DFF84832DFF82C72B1F163
:101B4000A04F16BFB94216461E463668DFF834C2AB
:101B500006F0E07660451CBFDFF82CE2704524D12A
:101B60005FEA062C21D4B1F1A04F04D0DFF8740154
:101B7000814245D11A461168DFF8100221F0E07168
:101B80000E4346F4000616600168DFF80422B1FB3C
:101B9000F2F2521C0C2042430092009800281EBF13
:101BA0000098401E0090F8D12AE0DFF8E8E1704587
:101BB0000DD1F00124D4B1F1A04F1CBFB9421A4697
:101BC000106820F0E070064346F0807611E0DFF800
:101BD000C8C1604514D1700212D4B94210D0B1F11D
:101BE000A04F18BF1A46106820F0E070064346F474
:101BF0008006166004E0686840F0200068600124F8
:101C0000002028702046F2BD0C04005090FAA0F08D
:101C1000B0FA80F213461046704790FAA0F0B0FA7E
:101C200080F0704730680321FFF7D8BA306802218E
:101C3000FFF7D4BA30680121FFF7D0BAE06D40F069
:101C40001000E065206E40F0010020660120704722
:101C50007CB504460020009021688868C2073CD407
:101C600088686FF39E10002834D188683D4D284065
:101C700040F0010088602068B0F1A04F1BBF3A49D6
:101C800088423E483E48006800020AD53F49404B22
:101C90000A68B2FBF3F35B1C0C204343009300F093
:101CA00023F800F019FA064620680168CA0714D420
:101CB0008068C00705D420688168294041F001018F
:101CC000816000F009FA801B0328EDD320680168C9
:101CD000CA07E9D4FFF7B2FF76BD002076BD000049
:101CE000FEF1FFFF0006005002E00098401E009049
:101CF00000980028F9D1704738B5044621688868F3
:101D00008A68D2072BD5800729D48A6802F00D0291
:101D1000012A1DD18A681348024042F002028A60FB
:101D200003212068016000F0D7F905462168886822
:101D3000C10714D500F0D0F9401B0328F6D3206862
:101D40008168C807F2D5E16D41F01001E16503E05B
:101D5000E06D40F01000E065FFF774FF32BD002039
:101D600032BD0000C0FFFF7F0001005000F0FF0304
:101D7000FFFF070000007F400000088008030050BC
:101D800008070050000021C31000C090540000203C
:101D9000400D0300000052C7000084CB18B58BB083
:101DA00008A800210022002380E80E0020216846B8
:101DB00000F098F95D4C4FF480204FF0A041606036
:101DC00021600120002200F03EF808B100F0FCF98B
:101DD0000020089008A9204600F05AFA08B100F047
:101DE000F3F9534900F020F808B100F0EDF90CB018
:101DF00010BD10B588B02021684600F073F94D4C35
:101E00004D4921604FF4802060600022012000F0E5
:101E10001AF808B100F0D8F9484900F005F808B1FF
:101E200000F0D2F908B010BD009106220192022103
:101E300002917F22039204210491002205926946B7
:101E40002046FFF712BD04212062A260E2602261F9
:101E50006261A161A28304F1240000214FF4A46215
:101E60004FF4806301708260C36001758161017706
:101E70002046FFF7DCB978B59BB00446142101A8D1
:101E800000F030F9542106A800F02CF920682C4C01
:101E90002C4D2D4EB0F1A04F4FF080514FF4004229
:101EA00008D100F02BF808B100F08EF900F02BF803
:101EB00002220AE0204B98421ED100F01FF808B120
:101EC00000F082F900F01FF80422286800F00400F6
:101ED0000090009801920323002231600293039244
:101EE00001A9204600F076FA00220121122000F01C
:101EF0008DFB122000F0A8FB1CB070BD069217915C
:101F000006A800F0CBBB3168491C012908D128681C
:101F100040F4005028602A6802F4005200920098B1
:101F20002A6842F004022A6070470000340A002048
:101F30008000501DA00A00200001005000018021F7
:101F4000000800484C1002409C0D0020704730B53E
:101F5000016884684218416802EB5103C90703D540
:101F60004C4401E0491C08D19A4218BF12F9011BE8
:101F700001D10C3030BD12F8015B002904F8015B7F
:101F8000F0D4491EF7D5EFE710B5444CA18920786D
:101F90009FED410A20B984ED040A606100210BE045
:101FA000012809D1491C00208AB284ED040A60612D
:101FB000B2F5805FA8BF00212184A18104F1200037
:101FC00000F0B2FC606AA16AA061E161201D00F02E
:101FD0004CFD334861680160A2684260BDE8104072
:101FE00000F05CBD38B500682E4CB0F1A04F04F194
:101FF000230506D12C48FFF7E3FA60600120287022
:102000000BE02A49884205D12948FFF7D9FA012176
:10201000A0606970287800283CD06878002839D002
:10202000002129706970A06861686182A08200F057
:102030001DFE2048204C4168204DA1628268E2626A
:10204000C068206304F1280000F0CEFC1C48008A20
:10205000A083208104F11C0000F066FC206A616A04
:102060006061A161606BA16B20606160204600F03F
:10207000E1FC1448E16841602169696000F068FE94
:10208000284600F065FEFFF77FFFBDE832400E48AE
:1020900001F050B831BD0000CDCCCC3E2C0D00205D
:1020A000580D0020F00C0020340A002000010050E0
:1020B000A00A0020180D0020B40C0020040A002003
:1020C000800D0020D4090020780D00207047704753
:1020D000704770477047704701480068704700BFFD
:1020E00048000020002201F043B8704700B587B0D7
:1020F00072B601F057F800F02FF801F063F8FFF71F
:102100004DFEFFF776FE00F073FE00F020FF01F0B9
:10211000E1F800F0E7FE01F065F901F047FA0D483B
:1021200001F065FA01F0E6FE00F03EFE00F058FD19
:1021300000F060FD00F06BFD4FEA0D0023A11C22B2
:1021400001F00EFF684601F017FF62B601F07CFF58
:10215000FCE70000680C002000B593B0382105A80A
:10216000FFF7C0FF14216846FFF7BCFF002001F015
:1021700083FF4FF4807208920221022205910C9293
:102180000D924021042209910E9255210A220F91AD
:102190001092042102221191129205A801F0C2FFAF
:1021A00008B100F011F80F200321009001910022E6
:1021B0000292039204920421684602F091F908B158
:1021C00000F002F813B000BD72B6FEE7EB20000885
:1021D000F55D0008EB480008C33100083F470008E0
:1021E000A3310008E95D00087CB50446002004F135
:1021F00058060D4600903178012901D1022076BDA4
:102200000120307000F036F8010070682BD120F406
:10221000885040F00200706005F080452268DFF8C9
:102220006800936803401D4345F000459560DFF862
:102230005C2020688068C00F0FD00098401C009080
:1022400000989042F5D3706820F0020040F0100032
:10225000706000203070012076BD7268012060F34C
:102260000102726002E040F01000706000203070E7
:10227000084676BD2046FFF73FBD0092606840F0FB
:102280002000606022707047C0FFFF3F02DE040044
:102290002DE9F04F00F158049BB023780022012B68
:1022A00008BF022024D0012525700026179600259E
:1022B00018950368404D3E4EB3F1A04F10D10096E3
:1022C000009FBF68D3F808C05FEA4C7C65D47F07E5
:1022D00063D4B3F1A04F16BFB342384F384F08E074
:1022E000344FBB4208BF0095EAD0FFF7C7FF01207B
:1022F0005BE00B68DFF8CCC0DFF8CC80DFF8CCE027
:10230000DFF8CC9053B3D7F800A04B6890F838B002
:102310002AF4604A43EA0A0343EA4B3AC7F800A0AA
:102320000068B0F1A04F18BFB04204D1D8F8000047
:10233000B368184306E0D9F80000AB68DEF8005037
:102340001843284310F001002CD13B6808688968C5
:102350000CEA0303184341EA000C1BE03B6823F43A
:1023600060433B600068B0F1A04F18BFB04204D199
:10237000D8F80000B168084306E0D9F80000A96861
:10238000DEF800300843184310F001000AD1386825
:102390000CEA000CC7F800C004E0616841F02001BD
:1023A000616001220020207010461BB0BDE8F08F54
:1023B00000010050000400500005005008030050C8
:1023C00008070050E0F0FFFF08000050080600502A
:1023D000080400502DE9F84F0027774A774B4FF05B
:1023E0000F0805460E4638E0754CA54214BF06247A
:1023F00005248C40734944EA0E0441F82C40C14343
:10240000D2F808C0746801EA0C0CE40248BF40EA44
:102410000C0CC2F808C0D2F80CC0746801EA0C0CAD
:10242000A40248BF40EA0C0CC2F80CC0D2F804C0A9
:10243000746801EA0C0CA40348BF40EA0C0CC2F813
:1024400004C0D2F800C001EA0C0C7168C90348BF8F
:1024500040EA0C0CC2F800C07F1C316831FA07F06A
:1024600000F094800124BC4014EA0100F4D04FEA4B
:10247000470C032101FA0CF16FEA010E716801F0BB
:102480000309B9F1010F1CBF01F00301022912D1A8
:10249000A968D6F80C900EEA010109FA0CF949EA8C
:1024A0000101A960696821EA04047168C1F300119F
:1024B000B9400C436C60B900347904F00304032C78
:1024C00021D0EC68D6F808900EEA040409FA0CF959
:1024D00049EA0404EC60347904F00304022C12D1BC
:1024E000FC0805EB840401F01C09D4F820A008FACC
:1024F00009FB2AEA0B0AD6F810B00BFA09F949EAE7
:102500000A09C4F820902C680EEA040E347904F00D
:10251000030404FA0CF444EA0E0CC5F800C0746815
:1025200014F4403F98D0D3F800C0264C4CF0010C76
:10253000C3F800C04FEA970CD3F800E00EF0010E8C
:10254000CDF800E001F00C01DDF800E054F82C407B
:1025500008FA01FE24EA0E0EB5F1904F08BF0024E0
:1025600013D0194CA54208BF01240ED0174CA54228
:1025700008BF022409D0164CA54208BF032404D08A
:10258000144CA5427FF430AF042432E7BDE8F18F4C
:102590000069084018BF0120C0B270470AB18161CC
:1025A000704781627047426901EA0203914341EA40
:1025B0000341816170470000000401406010024047
:1025C00000140048080001400004004800080048CA
:1025D000000C0048001000480901020002D42848FD
:1025E00081547047274B02F00F021A4402F8041C72
:1025F0007047254B19684FF6FF020002114000F4A6
:10260000E0600843214908431860704770B51E4BCD
:102610001C68C4F302230124C3F10705052D2EBF56
:102620000F2504FA05F56D1E1E1D072E34BF00236D
:10263000DB1E2940994004FA03F3BDE870405B1E9D
:102640001A401143C8E70000010007D4012200F03E
:102650001F010F4B8A40400943F820207047401E5D
:10266000B0F1807F01D3012070470A490A4A4860CF
:102670000023F02010708B60072008600020704756
:1026800000E400E018ED00E00CED00E00000FA05C9
:1026900000E100E010E000E023ED00E02DE9FC4760
:1026A00005464FF000082868DFF87062DFF87072A6
:1026B000010353D5F06CC100C1460AD4F06C40F060
:1026C0008050F0644FF00109F06C00F080500090F1
:1026D0000098DFF85042206840F480702060FFF7D7
:1026E000FBFC82462068C10506D4FFF7F5FCA0EB91
:1026F0000A000328F6D321E0386810F440701CBFAC
:10270000296D88420BD03868396841F480313960CE
:1027100020F440703A6822F480323A603860C00792
:102720000FD5FFF7D9FC04463868810709D4FFF7B5
:10273000D3FC001B41F289318842F5D34FF00308E6
:1027400005E03968286D21F4407101433960B9F121
:10275000000F03D0F06C20F08050F0642878C1079F
:1027600005D5F26F6868920840EA8202F26729781C
:10277000880705D5F16FA86821F00C010143F167C6
:102780002978480705D5F16FE86821F03001014349
:10279000F1672978080705D5F16F286921F0C00194
:1027A0000143F1672978C80605D5F16F686921F4FE
:1027B00040710143F1672978880605D5F16FA86952
:1027C00021F440610143F1672978480605D5F16F8E
:1027D000E86921F440510143F1672978080605D5DD
:1027E000F16F286A21F440410143F1672968C80567
:1027F00005D5F16F686A21F440310143F16729681A
:10280000880305D5F968A86A890840EA8101F9605A
:102810002968880505D5F16FE86A21F44021014354
:10282000F167296848050AD5F16F286B21F440113A
:102830000143F167296BB1F5801F00F069F8296841
:1028400008050AD5F16F686B21F440010143F16777
:10285000696BB1F5800F00F05BF82968C8040AD5F0
:10286000F16FA86B21F040710143F167A96BB1F1E1
:10287000807F00F04DF82968880408D5F16FE86B77
:1028800021F040610143F167E96B00F03FF82968EE
:10289000480408D5F16F286C21F040610143F167CD
:1028A000296C00F033F8296808040AD5F16F686CC8
:1028B00021F040510143F167696CB1F1805F00F094
:1028C0001FF82968C8030AD5F16FA86C21F04041B0
:1028D0000143F167A96CB1F1804F00F011F829684C
:1028E00048030AD5F968E86C21F440110143F96006
:1028F000E96CB1F5001F00F00BF84046BDE8F68723
:1029000003D1306840F4803030607047B1F1006F1F
:1029100003D1306840F48010306070470C100240E2
:10292000901002400070004030B50188254A11F433
:10293000406309D0B3F5806F10D0B3F5006F19D0A4
:10294000B3F5406F2CD030BD52F82140446049426D
:1029500002EB8101D1F8FC2F826030BD4B4202EBCB
:10296000830303F5005402EB810125684560A1F65D
:10297000FC720EE002EB8103A3F50054494294ED92
:10298000000AB1EE400A02EB810180ED010A01F577
:10299000405292ED000AB1EE400A80ED020A30BDCD
:1029A0004B4202EB830303F5804402EB810194ED7B
:1029B000000AB1EE400AA1F5405280ED010A136809
:1029C000836030BDD8010008B4EE401AF1EE10FA71
:1029D00002DBB0EE410A7047B4EE600AF1EE10FA85
:1029E000A8BFB0EE600A704790ED000A90ED011AA2
:1029F000F0EE000A60EE200A90ED020A31EE000AC5
:102A000030EEC00ADFED090A60EE200AC0ED030ACD
:102A100090ED010AD0ED020A70EE200A9FED041A33
:102A200020EE811A80ED041A70470000ABAAAA3E7E
:102A30003ACD133F90ED000AD0ED060A90ED051A4D
:102A400060EE200A90ED010A40EE010AC0ED030A93
:102A5000D0ED060A90ED001A60EE200A90ED050A0E
:102A600041EE400AC0ED040A704790ED030AD0ED34
:102A7000060A90ED051A60EE200A90ED040A40EE79
:102A8000410AC0ED000AD0ED060A60EE200A90ED82
:102A9000030A40EE010AC0ED010A704790ED010AF9
:102AA000D0ED010A80ED050AB6EE001A60EE810A4B
:102AB000D0ED001A9FED472A41EE820A30EEC00A9F
:102AC000C0ED060A80ED070A032190ED060AC184D5
:102AD000B5EE400AF1EE10FAC8BF022190ED070AE8
:102AE000B5EE400AF1EE10FAC8BF491E90ED050A96
:102AF000B5EE400AF1EE10FA48BFC1F10701C184FA
:102B0000C18C012918BF04290CD1D0ED050A90ED24
:102B1000071A90ED060A80ED020A30EEC11A80ED28
:102B2000031A22E0022918BF05290CD190ED070AEB
:102B3000D0ED060A70EE200A90ED050AC0ED020AFB
:102B400080ED030A11E0032918BF062912D190ED88
:102B5000070AD0ED050A80ED020AB1EE400A80EDC9
:102B6000030A90ED060A30EE800AB1EE400A80EDCD
:102B7000040A03E000218160C1600161DFED160AF3
:102B800090ED021A9FED150A21EE201A21EE001A8F
:102B9000BDEEC11A11EE101A90ED031A01F2523176
:102BA00021EE201A018421EE001ABDEEC11A11EEA9
:102BB000101A90ED041A01F2523161EE200A41849C
:102BC00020EE800ABDEEC00A10EE101A01F252315A
:102BD00081847047D7B35D3F14CD133E00805444C9
:102BE0004C4800210180C1600182416081604161E7
:102BF0007047000051480021016041608160C16060
:102C000001610162416241618161C161704710B53A
:102C10004148424C0021018041608160C1600161F6
:102C200041618161C16101622230017141802046B0
:102C30007F21FFF7D9FA2046FEF702FC384C7F21AE
:102C40002046FFF7D1FA2046FEF7FAFB00F052FAD1
:102C500000F054FA334800F06DFABDE8104001224C
:102C60004FF400513648FFF799BC000010B52A4CCC
:102C70002DED088BB4F91200B4F91C10401A00B203
:102C800001F04CFD9FED28AB53EC1A2B01F058FDE1
:102C90009FED279B53EC192B01F052FD9FED298BE3
:102CA00053EC182B01F022FE00F02FF801F046FF44
:102CB000B4F91E100BEE100AB4F91400B1EE4BBAC1
:102CC000401A84ED0BBA00B201F028FD53EC1A2B28
:102CD00001F036FD53EC192B01F032FD53EC182BAB
:102CE00001F004FE00F011F801F028FF00EE100AD8
:102CF000B1EE400A7BEE000AF1EE600A84ED0C0AA8
:102D0000C4ED0D0ABDEC088B10BD0B4A0F4B01F052
:102D100049BF0000800D0020F00C0020340A002084
:102D2000A00A0020780D0020000000000000303FC5
:102D30006666666666660A40B81E85EB580D00201A
:102D400000080048000000000000F4BF51B8BE3F7A
:102D500010B5044694ED000AD4ED010A94ED021A70
:102D6000D4ED0A1A70EE600AB4EE611AC4ED080AD6
:102D7000F1EE10FA94ED0B0A04BF94ED051A01EE82
:102D8000200A94ED041A84ED090A84ED0B0A01EE81
:102D9000200A84ED0A0A94ED071AD4ED060AFFF71B
:102DA00013FE84ED020A10BD0F48104AC2610021D3
:102DB000016141619FED0A0A4FF07F518161DFEDB2
:102DC000090A00210164416480ED120AC0ED130A72
:102DD0000167416780ED1E0AC0ED1F0A70470000C1
:102DE0009EEFCB409EEFCBC0A40900200000C0BFE7
:102DF00018B597B007A800F0CAF81C216846FFF77D
:102E000071F934210AA8FFF76DF90421DFF838437E
:102E1000DFF838036160206000212161616140F2C8
:102E2000A3602022E0608021A260A161204600F022
:102E300033FC08B1FFF7C8F9702000210790089112
:102E40000991204607A902F009F908B1FFF7BCF97A
:102E500060200021009001910022039105910292CF
:102E60000492069200F03AF808B1FFF7ADF9042297
:102E700000F034F808B1FFF7A7F9082200F02EF8A7
:102E800008B1FFF7A1F9702140F2A262009101920E
:102E900069460C2200F023F808B1FFF795F99A2152
:102EA0000D9100204FF400510F910A904FF00071E6
:102EB0000B900C900E901090119012901391149012
:102EC000159016900AA9204602F012F908B1FFF7F2
:102ED0007BF9204600F0C2F818B010BD69462046C4
:102EE00000F059BD18B587B003A8002100220023C7
:102EF000002480E81E006846954C039280E80E008E
:102F0000944921604FF0FF300521E0600591626037
:102F1000A2602261A2610492069203A9204601F0F8
:102F200065FF08B1FFF750F950210091002202928D
:102F30006946204602F092F808B1FFF745F92046AD
:102F400000F055FB204601F0B7FF08B010BD1FB5DB
:102F5000684600F01CF8804C80492160A260112076
:102F6000606040F2E7318022E160A261204600F01B
:102F700031FB08B1FFF728F90021009102912046AA
:102F8000694602F06BF808B1FFF71EF91FBD00217A
:102F90000022002380E80E00704781B000686B4972
:102FA000884209D16E48026842F4006202600068FB
:102FB00000F400600090009801B0704710B586B032
:102FC0000446142101A8FFF78DF8226861498A425E
:102FD00028D16448C16841F00801C160C16801F0AE
:102FE000080100910099026842F001020260072185
:102FF000006800F001000090022200980191029206
:103000000021039104914FF090400221059101A904
:10301000FFF7E0F9002202213220FFF7F7FA322011
:10302000FFF712FB06B010BD00684C49884200D083
:10303000704780B54C48026842F0100202600022DE
:10304000006800F010000090022100983620FFF781
:10305000DDFABDE802403620FFF7F6BA10B586B0BB
:10306000044614216846FFF73DF8226837498A4232
:103070003ED13C483D4C026842F0020202600168C9
:1030800001F0020105910599026842F00102026017
:103090004FF4C041006800F001000590022205983D
:1030A0000091019200210291039120460621049192
:1030B0006946FFF78FF90022029203924FF4004015
:1030C0000221009001910422049269462046FFF7F4
:1030D00081F90022029203924FF4E06002210090F5
:1030E00001910622049269464FF09040FFF772F971
:1030F00006B010BD0C21144800F0DBBA10B5124C1C
:103100000021204600F0D5FA0421204600F0D1FA33
:103110000821204600F0CDFA0021204601F039FFB9
:103120000421204601F035FF2046BDE8104008216B
:1031300001F02FBF0449096802884A6343888B6302
:103140008088C86370470000D00B0020002C01402D
:103150001C0C0020000C0040680C002000100040F7
:10316000601002404C100240581002400004004819
:1031700000B500BF130096469446103928BFA0E85A
:103180000C50FAD85FEA417C28BF0CC048BF40F819
:10319000042BC90728BF20F8022B48BF00F8012BD9
:1031A00000BD7047032010B5FFF723FA0F2002F08F
:1031B0000DF80024002814BF012402F029F820464D
:1031C00010BD704770B586B014216846FEF78AFFBF
:1031D0003A483B4E01683B4C3B4D41F004010160D5
:1031E000026802F0040205920599026842F020028A
:1031F0000260036803F0200300F068F842F0010267
:103200000260036803F0010300F060F842F002027C
:103210000260036803F0020300F058F842F008026D
:103220000260036803F0080300F050F842F0100257
:1032300002600022006800F0100005904FF4005179
:1032400005983046FFF7AAF9002203212046FFF730
:10325000A5F9002201212846FFF7A0F94FF40051FB
:1032600000910122002102910391019269463046AA
:10327000FFF7B0F801210091019120460021029151
:1032800003916946FFF7A6F80221009101220192FD
:10329000002102910322039269462046FFF79AF823
:1032A00001210091019103220021029103926946BC
:1032B0002846FFF78FF806B070BD00004C100240A2
:1032C00000080048000C00480010004805930599CC
:1032D0000268704710B53D4C3D4820600521012033
:1032E0006061A06161600A20E06106212162042022
:1032F00060621021A16203200022E0620121A2602D
:10330000E2602282A27421636263A163E2632046C9
:1033100001F098FF08B1FEF757FF00220121204677
:1033200002F0E0F92046BDE8104002F0E3B818B51D
:103330009BB00446142101A8FEF7D4FE542106A830
:10334000FEF7D0FE2068224988423DD14FF48052DA
:103350004FF080710692149106A8FFF79FF908B10B
:10336000FEF732FF1B48C16841F00071C160C168BF
:1033700001F0007100910099026842F001020260C0
:103380004FF4C051006800F0010000900222009844
:10339000019102920021039104914FF09040092184
:1033A000059101A9FFF716F8002203211520FFF768
:1033B0002DF91520FFF748F9002203211620FFF709
:1033C00025F91620FFF740F91CB010BD0C0B0020AA
:1033D000006400404C1002400C22584B50431844EB
:1033E0008160704780B586B0002002F01BFB002191
:1033F0000091019101220221029103924FF4007188
:1034000004914FF4F062059269464D4802F0F9FAD2
:1034100007B000BD2DE9FC41484CA178A07B627843
:10342000491CA170401CC9B29142A07303D3002172
:103430000122A1702271C0B2617B884203D30020B7
:103440000121A073217400210C25E31C05FB01F26E
:10345000A018007918B1985CE61C401CB054491CB7
:103460000229384EF2DB304602F0AEFAA8B101680C
:103470004FF40072891A07D0491E0AD1C268816AC6
:10348000684602F0D5FA04E0C268816A684602F034
:10349000D4FA304602F0A9FAE5E7218B022934D1AB
:1034A0000021E21CE71C05FB00F3D65C05FB01F3E1
:1034B000FB5C9E4238BF0846491C0229F3DB00280A
:1034C00004BF2179002937D0431CDBB201E0184644
:1034D0005B1C022B18DA05FB03F2E61C05FB00F16E
:1034E000B75C765CB742F3D1002704EB470614F8CB
:1034F00002C0B68BB445EAD014F80180B045E7D0DD
:103500007F1C022FF1DBE3E72083208B022813D0FE
:1035100068432044806800B1804704F120010848D6
:1035200002F068FA40B9208B4543E21C0021515556
:10353000201D415502212183BDE8F38100000020B8
:103540000C0B0020C408002010B51E4840F2811169
:103550000022016082604260426102610021082213
:1035600081610162C161C260426ACBB2D154491C1F
:10357000CCB2082CF8D310BDE0B5124800224FF4AD
:10358000C071826042608261426102620261C26116
:1035900001600822C2600C494A68CB68406A009208
:1035A00001930822694602F06DFA07BD80B507490C
:1035B0000020FFF711FFBDE8044005490120FFF797
:1035C0000BBF000020000020800D002049350008BE
:1035D0007935000838B5040001D1012032BD00F072
:1035E000FFF818B900F060FAFFF71EFD3EE090F812
:1035F0003D10012901D001207047022180F83D10C3
:103600000168CA6842F00102CA600168DFF89421CB
:10361000914218BFB1F1804F17D0DFF88C21914251
:103620001CBFDFF8883199420FD0DFF88421914226
:103630001CBFDFF88031994207D0DFF87C2191422E
:103640001CBFDFF87831994209D18A68DFF87C1114
:103650000A40062A18BFB2F5803F05D001680A6803
:10366000084642F0010202600020704702206870A4
:10367000211D206800F01CFA012028730121A97087
:10368000E87029716871A971E87129726872A9726C
:10369000E8726970002032BD38B5040001D1012004
:1036A00032BD00F09DF818B900F0FEF9FFF775FC87
:1036B000DCE7F8B5044604F13E0009B902780FE0F2
:1036C000042908BF42780BD0082908BF827807D0A8
:1036D0000C2908BFC27803D010290CBF02794279A7
:1036E000012A01D00120F2BD11B90222027014E0BA
:1036F000042902D1022242700FE0082902D10222DD
:1037000082700AE00C2902D10222C27005E0102961
:1037100007BF022202710223437100F038F800F063
:103720003BF818BF98420AD090421CBFDFF8AC604B
:10373000B04204D000F027F818BF884203D1466C8D
:1037400046F4004646642068A84218BFB0F1804F96
:103750000ED0154DA8421CBF144EB04208D0144DD7
:10376000A84218BF984203D0904218BF884206D1A1
:1037700000F026F818BFB1F5803F02D0206800F0B5
:1037800027F80020F2BDDFF86070B842704720686B
:10379000044D012200F0A0BB20680849064A054BF1
:1037A000A8427047002C014000040040000800407F
:1037B000000C004000340140004001400050014036
:1037C0008168024801400629704700000700010097
:1037D0000168024641F00101116070470044014058
:1037E00004F13C05687870470048014070B5044614
:1037F0002068C5680669B10714D5AA0712D56FF00D
:103800000201016101222277806910F0030F204636
:1038100002D002F071F903E002F0BAF900F0B3F857
:1038200000202077700715D5690713D520686FF041
:103830000402026102212177806910F4407F204652
:1038400002D002F059F903E002F0A2F900F09BF86F
:1038500000202077300715D5290713D520686FF091
:103860000802026104212177C06910F0030F20468D
:1038700002D002F041F903E002F08AF900F083F887
:1038800000202077F00615D5E90613D520686FF0E3
:103890001002026108212177C06910F4407F2046A0
:1038A00002D002F029F903E002F072F900F06BF89F
:1038B0000020207706F0010105F00100014206D04A
:1038C00020686FF001010161204600F094FB16F4BE
:1038D000025F08D0280606D522686FF402511161F4
:1038E000204602F056F9F00508D5290606D52268CB
:1038F0006FF480701061204602F04CF9700608D514
:10390000690606D522686FF040001061204602F07B
:1039100042F9B00608D5A90606D522686FF0200046
:103920001061204602F038F9F00208D5E90206D508
:1039300022686FF480101061204602F02EF9B00268
:1039400008D5A90206D522686FF400101061204640
:1039500002F024F9700208D5690206D522686FF4D6
:1039600080001061204602F01AF930020AD52902BF
:1039700008D522686FF4000010612046BDE8704051
:1039800002F00EB970BD204602F00BB9002084F899
:103990003C002846704770B500F07FF801D1022046
:1039A00070BD012084F83C0052B1042A19D0082AC5
:1039B00029D00C2A38D0102A48D0142A57D068E0D1
:1039C000206800F0D8F82168886940F00800886114
:1039D000886920F0040088618A69306902438A613D
:1039E00058E0206800F00FF92068816941F4006117
:1039F0008161816921F4806181618169326941EA73
:103A00000221816146E0206800F039F92168C86927
:103A100040F00800C861C86920F00400C861CA69A4
:103A200030690243CA6135E0206800F068F9206817
:103A3000C16941F40061C161C16921F48061C16162
:103A4000C169326941EA0221C16123E0206800F0C6
:103A50009AF92168086D40F008000865086D20F0AB
:103A6000040008650A6D306902430A6512E02068A7
:103A700000F0B7F92068016D41F400610165016D46
:103A800021F480610165016D326941EA022101651D
:103A900000E00125FFF77AFF70BD0446002594F889
:103AA0003C0001280E4670470021297020467047CF
:103AB0002DE9F0470368DFF8FCE3DFF8FC43DFF8AB
:103AC000E453DFF8E463DFF8F473DFF8E0C3DFF812
:103AD000F083DFF8F093DFF8D8A3704518BFB0F19A
:103AE000804F08D0504518BF484504D040451CBF02
:103AF0006045B84210D14A6823F070031343704503
:103B000018BFB0F1804F0FD0504518BF48450BD0BB
:103B1000404518BF604507D0B04218BFA84203D047
:103B2000A04218BFB84203D1CA6823F440731343BC
:103B30004A6923F080031343036070458B68C362B6
:103B40000A68826218BF604507D0B04218BFA84219
:103B500003D0A04218BFB84201D109690163012214
:103B600042610169CA0703D5016949084900016139
:103B7000BDE8F08700002DE9F043066A026ADFF82D
:103B80003493DFF83473DFF81CC3DFF81CE3DFF88D
:103B90001C8352085200026226F0020644688569BE
:103BA000DFF824230B6815408A681D431643DFF8AD
:103BB0000C33484518BF404507D0704518BF6045D5
:103BC00003D0B84218BF98420ED1CA6826F0080642
:103BD000164326F00406484518BF404506D07045F8
:103BE0001CBF6045B84201D0984205D14B698A6933
:103BF00024F440741C431443446085614968416364
:103C00000662BDE8F083F0B5036A026ADFF8A472C9
:103C100022F01002026223F020034468856900F05C
:103C2000ABF843EA021300F0A3F81CBFB042904285
:103C30000BD1D1F80CC023F0800343EA0C1323F01E
:103C40004003B84218BFB0420CD000F0F9F81CBFD6
:103C5000DFF85072B84205D0DFF85C62B04218BF9E
:103C6000904206D14E698A6924F44064164344EABE
:103C7000860444608561496881630362F0BDF0B5E4
:103C8000046A026ADFF840328A4F22F480720262CC
:103C900024F400744568C6690A681E408B681643A0
:103CA00044EA0324DFF81422804BB8421CBF984238
:103CB00090420BD1D1F80CC024F4006444EA0C24E7
:103CC00024F48064B84218BF98420AD0764B9842D8
:103CD0001CBF744FB84204D0774B984218BF904233
:103CE00006D14B698A6925F44055134345EA03150B
:103CF0004560C6614968C1630462F0BD0000F0B56B
:103D0000036A026A6B4F22F48052026223F400536A
:103D10004468C56900F030F843EA023300F028F83F
:103D20001CBFB04290420BD1D1F80CC023F4004329
:103D300043EA0C3323F48043B84218BFB0420AD0A0
:103D400000F07EF81CBF574FB84204D05A4EB04224
:103D500018BF904206D14E698A6924F44044164344
:103D600044EA86144460C561496801640362F0BD99
:103D7000524A4E4EB8427047544A0E6815408A68FF
:103D800045EA0625704770B5046A026A504B22F472
:103D90008032026224F400344668056D0A681D40D2
:103DA00015438B68434A44EA034490421CBF3F4B8F
:103DB00098420BD03C4A90421CBF3A4B984205D0E7
:103DC0003D4A90421CBF3D4B984204D14A6926F4BB
:103DD000803646EA022646600565496881640462C9
:103DE00070BD70B5036A026A22F48012026223F485
:103DF00000134568046D374A0E68144044EA0624EF
:103E00008A682C4E43EA0253B0421CBF274A9042B4
:103E10000BD000F015F81CBF224A904205D0264E68
:103E2000B0421CBF254A904204D14A6925F480253E
:103E300045EA8225456004654968C164036270BD36
:103E4000194EB0427047F0B5046A056A194E6D0804
:103E50006D000562B042856918BFB0F1804F11D086
:103E6000134EB0421CBF174FB8420BD0144EB04295
:103E70001CBF0E4FB84205D0FFF7E2FF1CBF0F4F2B
:103E8000B84203D1AD0842EA850201E045F00102E3
:103E900063F3071224F00A0401F00A01826121434E
:103EA0000162F0BD00440140004001400034014087
:103EB00000040040002C0140004801400050014037
:103EC000000C0040000800408CFFFEFFFF8CFFFE4E
:103ED0008FFFFEFFFF8FFFFE10B501F01F01036A89
:103EE00001248C40A343036202FA01F1036A1943DF
:103EF000016210BD10B586B0142101A8FEF7F2F8DA
:103F00001548164C016841F010010160012200685B
:103F100000F01000009011230099019200210391FC
:103F20000322029300F00FF8022101911122029264
:103F300000210391032200F006F80122032100F082
:103F400007F806B010BD049201A92046FEF742BA58
:103F50002046FEF723BB00004C1002400010004832
:103F60004AB1000011F8013B521E00F8013B1CBF92
:103F700011F8013BF8E7704710B53D490522CA80AA
:103F80008A800A2400220A7203680B604C82002394
:103F90000C820B7532234268CB838B83CA6000236B
:103FA00081F82030642382688A614B850B8501F19A
:103FB0002C0200231370C823C468538113814C6200
:103FC000002313734FF47A730469D382938254608D
:103FD0000023137642F210734469538413841461EE
:103FE000002301F8503F8069D061C1E902330A2201
:103FF0008A80CA8010BD00681E49884200D0704780
:10400000F0B51B4800F154014A88521E93B24BB9D7
:10401000D0E916450022661C4A8065F1FF37C0E9E9
:1040200016670A884A8000210C224A430244D3883A
:104030005B1ED3809BB21BB99488D480012313727A
:10404000491C0629F0DDF0BD38B50024084D0C21CF
:1040500061436A18107A00281FBF00231372685842
:10406000002818BF8047641C072CF0DB31BD00001E
:10407000700B00200010004030B53222DFF898307D
:10408000DFF89050DFF88810012448B900F01DF8DF
:1040900020F48070286016D100F01EF80CD412E0D5
:1040A000B0F5007F0AD100F010F840F4807028606D
:1040B00009D100F011F806D5032030BD0A680220AE
:1040C00060F34A220A60002030BD086800F4C06036
:1040D000B0F5806F28687047086864F34A2008606C
:1040E0001B68DFF838405A43B2FBF4F0401C00E094
:1040F000401E4A69530501D50028F9D14869410598
:1041000070470748016841F4804101607047000032
:1041100000700040807000405400002040420F00BA
:10412000087000402DE9F84304006DD02078DFF8D6
:10413000B865C10717D500F0CDF90CD101F0030126
:1041400003290AD06068B0F5803F2AD1306840F476
:104150008030306037E00828F4D13068810302D520
:104160006068002850D02178880759D500F0B2F94E
:1041700043D101F00301022941D0E06800286AD050
:10418000316841F480713160FDF7A6FF0546306863
:1041900041055DD4FDF7A0FF401B0328F7D30320A2
:1041A0005FE1B0F5A02F306806D140F48020306088
:1041B000316841F4803105E020F4803030603168AE
:1041C00021F480213160606858B1FDF785FF054614
:1041D00030688103C7D4FDF77FFF401B6528F7D304
:1041E000DDE7FDF779FF054630688103BBD5FDF7B4
:1041F00073FF401B6528F7D3D1E70428BDD1306891
:10420000410503D5E068002800F05A8100F05AF912
:10421000DFF8E004006800F0D9FF002840F050818A
:104220002078DFF8D474010734D5606900287868F5
:1042300021D040F001007860FDF74EFF0546786818
:10424000810727D4FDF748FF401B0328F7D3A6E7D3
:1042500000F038F9E4E7306820F480703060FDF752
:104260003BFF054630684105DAD5FDF735FF401BB9
:104270000328F7D393E7400840007860FDF72CFF50
:1042800005467868810705D5FDF726FF401B032802
:10429000F7D384E72078410763D5B06D0025C100CE
:1042A00009D4B06D40F08050B0650125B06D00F0CC
:1042B000805000900098DFF84484D8F80000C105D1
:1042C00013D4D8F8000040F48070C8F80000FDF75F
:1042D00003FF8146D8F80000C10506D4FDF7FCFEB7
:1042E000A0EB09000328F5D359E7A068012804D101
:1042F000386840F00100386010E00528386806D1C1
:1043000040F004003860396841F0010105E04008E0
:1043100040003860396821F004013960A06841F23A
:10432000893860B1FDF7D8FE81463868810713D41B
:10433000FDF7D2FEA0EB09004045F6D32FE7FDF7CD
:10434000CBFE81463868810706D5FDF7C5FEA0EB98
:1043500009004045F6D322E71DB1B06D20F0805032
:10436000B0652078810621D5A0690028B8680ED0F4
:1043700040F00100B860FDF7AFFE0546B868810760
:1043800014D4FDF7A9FE401B0328F7D307E7400824
:104390004000B860FDF7A0FE0546B868810705D566
:1043A000FDF79AFE401B0328F7D3F8E6E0690028E2
:1043B00056D0B16801F00C010C2954D002283068A5
:1043C00020F0807030603AD1FDF786FE05463068F7
:1043D000810105D5FDF780FE401B0328F7D3DEE6FB
:1043E000F068DFF81C13226A0840616A1043491E16
:1043F00040EA0110226BA16A520840EA0120616B79
:10440000521E490840EA4250491E40EA4160E16AB2
:1044100040EAC160F060306840F080703060F16860
:1044200041F08071F160FDF757FE0446306881016C
:1044300016D4FDF751FE001B0328F7D3AFE6FDF7B6
:104440004BFE04463068810105D5FDF745FE001B93
:104450000328F7D3A3E6F068DFF8A8120840F0605D
:104460000020BDE8F28301282AD0F068226A00F01B
:104470000301914201BF00F0F0011031626AB1EB1B
:10448000021F1DD1A26A00F4FE41B1EB022F02BF50
:1044900000F07841E26AB1EBC26F11D1226B00F4F7
:1044A000C00101F500115208B1EB425F08D1616B08
:1044B00000F0C06000F100704908B0EB416FCFD050
:1044C0000120CEE77068216920F0FE4040EA0160DB
:1044D00070607047B068F16800F00C000C287047FD
:1044E0002DE9F84F04460026002C6CD0DFF8187236
:1044F0003868894600F00F00484506D200F0BFF842
:10450000386800F00F0048455DD12168DFF8D851C8
:10451000C80741F2893858D56068DFF8F0B1032840
:104520004FF0080A27D1286882014CD5EA68E8686C
:10453000C0F30310401C02F00302032A0CBFDFF893
:10454000D021DFF8AC21B2FBF0F2E868C0F306201E
:104550004243E868C0F34160401C4000B2FBF0F009
:10456000584516D3AA6812F0F00F0DD0890710D560
:10457000A06870B908E00228286822D1810322D5FA
:1045800000F083F8584504D3A8686AF30710A860C0
:104590008026A9686068890840EA8101A960FDF762
:1045A0009BFD8246A868616800F00C00B0EB810FAB
:1045B0000BD0FDF791FDA0EB0A004045F2D303209C
:1045C0005BE04105DCD4012057E02068810714D569
:1045D000400703D5A96841F4E061A960207801078C
:1045E00004D5A968072060F30D21A960A968A06817
:1045F00021F0F0010143A96005E0802E03D1A868F5
:1046000020F0F000A860386800F00F0081450FD25C
:1046100000F035F8FDF760FD0646386800F00F0041
:10462000484505D0FDF758FD801B4045F5D3C6E74A
:104630002078410705D5AA68E06822F4E0620243C9
:10464000AA602178080706D5A968206921F460517D
:1046500041EAC001A96000F018F8AA682D49C2F328
:104660000312895C214A01F01F01C8401060BDE8B7
:10467000F24F2048006800F0A9BDBDE8F28F39680C
:10468000090949EA0111396070472349086800F0B7
:104690000C00042801D116487047086800F00C008F
:1046A000082801D11A487047086800F00C000C284F
:1046B00018D14A684868C0F30310401C02F0030296
:1046C000032A0CBF124A0A4AB2FBF0F24868C0F350
:1046D000062042434868C0F34160401C4000B2FBE2
:1046E000F0F0704700207047001002405400002096
:1046F0000024F4004C0000209010024000700040A4
:104700000C809F01FCFFEEFE0020024001B4C404B7
:1047100000127A00645D00080810024010F00041A9
:1047200060B148BF4042B0FA80F29040D21CC2F55E
:10473000846241EA025202EBD02140057047704783
:1047400030B540F2FF7C1CEA11541DBF1CEA135522
:10475000644565453FE0641981EA030C6FF35F53DC
:104760000CF0004C43F48013C90241F0004141EACF
:10477000505EC5021100A5FB020200284FF00000A8
:10478000EEFB01204FF00001E3FB052118BF42F0D2
:104790000102401800214941E3FB0E01A4F58064A9
:1047A0000D0302D292184041494154F1010470DDD9
:1047B000450872F1004250F1000051EB0451A1F59F
:1047C000801102D441EA0C0130BD40F2FF7E4CEA78
:1047D0000E51002030BD0CEA1355644518BF6545E5
:1047E00081EA030C0CF0004C41D050EA410E1CBF92
:1047F00052EA430E02E06146002030BD24422C44C0
:104800001BD15FEA050EF6D0090302BF0146002066
:10481000AEF1140EB1FA81F5AEEB050401FA05FE16
:104820000C35C5F1200100FA05F5C8404EEA000E2E
:104830006FF35F5343F480139CE733F00043B3FA04
:1048400083F504BFB2FA82FE75440B3D641BB5F1DB
:10485000200E2FBF02FA0EF3AB40C5F1200E22FA54
:104860000EFE38BF43EA0E03AA40641C7CE750EA00
:10487000410E14BF52EA430E6FF000014FF40015D1
:1048800015EB430F8EBF194615EB410F9DE7B4D8CA
:1048900030BDD4F10104B4F120050FDAC4F12005D4
:1048A000520828BF42F0010210FA05FE01FA05F590
:1048B0007244E2BFE0402843E1400FE0352C9ADC2F
:1048C000C5F1200452EA400220FA05F218BF42F076
:1048D000010231FA05F0A1400A43002172F10042C1
:1048E00050F1000051EB0C0130BD704770B491EAFB
:1048F000030F4FF0004540F1B7806B40841A71EB15
:10490000030604D26E40001BB141121973414FF4EB
:10491000001C1CEB410F34BF7CEB430683E00C0D05
:10492000A4EB1356362E00F37C80012E45EAC323F8
:1049300041DC43EA525312BFD20292025B082405C3
:1049400045EAC12141EA5051D2EBC020994125D41A
:1049500007D1B0FA80F610FA06F162D000202036B6
:1049600008E0B1FA81F6B140C6F1200220FA02F265
:104970001143B0404FEAF474B4EB465434F00106EE
:104980004FEA74040AD8D6F50016760D04F00044F8
:10499000F04061FA06F25040F1404840C00A40EA57
:1049A000415021F0004128BF5FEA500550F100005E
:1049B00044EBD12135E0DB0A45EAC121C90AB6F151
:1049C00020050EDD42EA0242120CC5F1200603FA70
:1049D00006F6EB4042EA06056D42984161F100019E
:1049E0000DE062FA06F5F240554063FA06FC82EAF1
:1049F0000C02F3405A406D42904161EB030111F407
:104A0000801F05D1641E620502D06D0040414941FE
:104A100021F48011430875F1004350F1000041EB8F
:104A2000045170BC70471CEB410F15D223F00043BA
:104A300052EA43060BD04FEA4C0CBCEB410F04D8B2
:104A40000C0D661E342EB7DDEBE7801A994150EA53
:104A5000410608BF0021E4E708BF1CEB430F28BF55
:104A60006FF00001DDE70000841A71EB030603D24A
:104A7000001BB141121973414FF4001C1CEB410F94
:104A800034BF7CEB430442E00C0DA4EB1356352EEF
:104A90004FDC45EAC323DB0A45EAC121C912B6F15E
:104AA00020050DDD63FA05F6EB4086EA03051242A8
:104AB00018BF45F00105C01851F100010CD213E0F8
:104AC00062FA06F5F2405540F3415A40B340F340D4
:104AD0005A408018594107D349085FEA30005FEA1D
:104AE000350528BF45F0010501F58011420875F133
:104AF000004250F1000041EB04514E0016F5001F3A
:104B000070BC38BF70470020090D090570471CEBC9
:104B1000410F10D252EA43060BD0BCEB410F05D82F
:104B20000C0DAB43661E342EB6DD02E0AB4380189D
:104B3000594170BC704770BC7047000001F00042E2
:104B40008B1AA3F16051B1F5801F0ADBB1F17F6FC1
:104B50001FD242EAC102C10071F1004142EB507024
:104B600070470B15C3F10903212B10D2890241EACA
:104B7000905180020128494141F0004121FA03F09F
:104B8000C3F12003994071F100415041704710007A
:104B900070476FF0000013EB103F5CBF000E42EA5D
:104BA000C0507047F0B540F2FF7581EA030C0CF07D
:104BB000004C15EA11541DBF15EA1357AC42AF4221
:104BC000E5E0BC41C1F31301C3F31303801A99411B
:104BD00043F4801304D2641E0018494180185941DF
:104BE000C90241EA5051B1FBF3F603FB1611A2FBD7
:104BF0000675D7EBC020A94102D2761E8018594114
:104C0000C90241EA5051B1FBF3FE03FB1E11A2FBA6
:104C10000E75D7EBC020A94103D2AEF1010E80186A
:104C20005941890241EA9051760546EA8E2EB1FB40
:104C3000F3F603FB1611A2FB0675D7EB8020A94102
:104C400002D2761E80185941C90241EA50514EEAFB
:104C5000060EB1FBF3F603FB1611A2FB0675D7EBAC
:104C6000C020A94102D2761E80185941C90241EAEA
:104C70005051B1FBF3F703FB1711A2FB0735D3EB40
:104C8000C020A94167F100070CBF004247F00107AF
:104C900066F3D5274FEA1E31B80814F5806412DD9B
:104CA000BD0775F1004250EB0E5051EB045111F568
:104CB000801F5CBF41EA0C01F0BD4CF07F6141F008
:104CC000E0410020F0BDBD076D0840EA0E5041F400
:104CD0008011D4F10104B4F120060ADAC4F12006EF
:104CE0000200E04001FA06F3E1401843B2401543E8
:104CF0000EE0342C13DCC6F1200445EA40056D08B3
:104D000020FA06F2154321FA06F0A1400D430021D6
:104D100075F1004250F1000051EB0C01F0BD002094
:104D20005FEA0C01F0BDCFB992185B41B3FA83F78B
:104D300004BFB2FA82F6BF190B3FB7F120062FBFAE
:104D400002FA06F3BB40C7F1200622FA06F638BF86
:104D50003343BA401CB1E419641E33E77F4231F09B
:104D60000041B1FA81F404BFB0FA80F6A4190B3CFB
:104D7000B4F120062FBF00FA06F1A140C4F12006CD
:104D800020FA06F638BF3143A0403C1B1AE7AC427C
:104D90001ABF05EA1357AF4212E050EA41061CBFA2
:104DA00052EA4306BFE750EA4107304661461CBF5E
:104DB00041EA0551F0BD52EA430C08BFC143F0BDC2
:104DC00000204FF4001616EB410F98BF16EB430F6F
:104DD00008BF16EB410F24BFC14305E016EB430F9C
:104DE0000CBF61464CEA0551F0BD000078B587B0B4
:104DF00004000E4608BF01205CD004F13C05687831
:104E000020B9002129702046FEF7D8F802206870EA
:104E1000211D2068FEF74CFEB3683168206803222C
:104E2000FFF711F82068816921F00C018161216888
:104E30008A69706802438A612068416841F0800194
:104E40004160DFF8FC0121688A6802408A602068BE
:104E5000816841F040018160DFF8E80121688A68DB
:104E600002408A6000222068816841F0040181606C
:104E70000492002170220591009206910391029103
:104E80006946F06801902068FEF7BDFE2168DFF8F2
:104E9000B8014A6802404A602068416841F0500108
:104EA0004160012028730121A970E870297268729D
:104EB0006970002008B070BD38B500F03DF808BF3B
:104EC000012903D1012A08BF012B01D0012032BDE5
:104ED00000F03BF8C17101222068C16841F0020175
:104EE000C16000212068FEF7F7FF206800F035F868
:104EF00018BFB0F1804F14D000F03BF81CBFDFF8B2
:104F00004C2190420DD000F030F81CBFDFF840215A
:104F1000904206D000F025F81CBFDFF838219042FF
:104F200006D100F030F818BFB1F5803F02D02068FC
:104F300000F023F8002032BD044604F13E0005785D
:104F400041788279C379012D7047022101700222D4
:104F500042700223837170472868DFF8FC10884292
:104F60007047DFF8281288427047DFF82412884221
:104F70007047DFF82012884270470168024641F00E
:104F80000101116070478168DFF80C0201400629B9
:104F9000704710B5044604F1440009B9027807E0EF
:104FA000042908BF427803D008290CBF8278C27850
:104FB000012A01D0012010BD11B9022202700AE0BD
:104FC000042902D10222427005E0082907BF02220B
:104FD00082700223C3702068042200F0E9F800F018
:104FE00024F818BFB0F1804F14D0FFF7C2FF1CBFE8
:104FF000DFF8582090420DD0FFF7B7FF1CBFDFF855
:105000005020904206D0FFF7ACFF1CBFDFF88C2188
:10501000904206D1FFF7B7FF18BFB1F5803F02D02D
:105020002068FFF7AAFF002010BD2068416C41F402
:10503000004141642068DFF8681188427047000031
:105040008FFFCFFFF8FFFEFF8FFFFFFD000800403E
:105050000034014000500140002C01402DE9F04394
:1050600000F13C052A78012A08BF02203ED0012227
:105070002A7002236B70D0F800E0DFF82491DEF88C
:105080000470DEF80860DFF81481DFF818C1CE453F
:105090001CBFE645C64503D14C6827F4700727437B
:1050A000DFF804310A681F401743CEF80470026825
:1050B0004A4518BFB2F1804F0FD0364882421CBF1C
:1050C0003A4B9A4209D03248824218BF624504D016
:1050D0002E4B9A4218BF424504D1886826F08006BC
:1050E000064396600121697000202870BDE8F083B6
:1050F00030B590F83C20012A01D1022030BD0122B8
:1051000080F83C20CC688B684A68056824F44074B9
:105110001C4324F4806414430B680A6924F400647B
:105120001C4324F4805414434B690A6B24F4005448
:105130001C4324F4804414438B69CA6924F470240A
:1051400044EA034424F080541443154B9D421FBF8E
:10515000144A9542114B9D4210D18A6A0B6A24F47D
:10516000700444EA025424F080741C434A6AC96AF9
:1051700024F00074144324F000540C436C640022A7
:1051800080F83C20002030BD0000000000400140BD
:10519000000C0040000400400700010000500140E6
:1051A000002C0140003401408FFFFFFD000800404B
:1051B00010B501F00F01036A04248C40A34303627D
:1051C00002FA01F1036A1943016210BD70B50E4E77
:1051D0000446B0680025A0B14FF47A710B4AB1FBC8
:1051E000F0F11068B0FBF1F0FDF739FA48B9102C76
:1051F00007D2002221464FF0FF30FDF707FA746016
:1052000000E00125284670BD480000205400002021
:105210000B4882B0816841F001018160816801F032
:10522000010100910099026842F08052026000681A
:1052300000F080500090009802B0FEF762BF00BFFF
:105240005810024070B504002BD004F15C0528789A
:1052500020B9002169702046FEF769F800F0F6F8E1
:105260000646206881690A0705D5FCF735FF801BD3
:105270000B28F6D30FE0816941F001018161FCF751
:105280002BFF064620688169CA070CD4FCF724FF6F
:10529000801B0B28F6D3686840F00100686003218A
:1052A0002970012070BD816941F00201816120688F
:1052B0005F49884202D160685E490860207C01280D
:1052C000206881690CBF21F0400141F040018161FB
:1052D000607C0128206881690CBF41F4804121F481
:1052E00080418161A07C0128206881690CBF21F484
:1052F000805141F48051816121688A69A06822F45B
:10530000407202438A612068816921F0A4018161B1
:105310002068016921F010010161E068012804D1D1
:105320002068816941F0040113E0B8B121680228C6
:10533000886910D040F0800088612068016941F0E0
:1053400010010161E068032808D12068816941F0FB
:105350002001816102E040F020008861E169A069DC
:105360006269491E401E090241EA4061206A401EEE
:1053700001432068521E41EA0241C161A168B1F5B2
:10538000407F0FD1A06AE16A401E491E40EA012019
:10539000216B2268491E40EA0110616A491E40EAF9
:1053A0000140D0602168D1F8C020E06B0243C1F811
:1053B000C0202168204A2148914208BF204803D0DC
:1053C000204A914208BF20482064D1F88020636BB6
:1053D00022F4F81242EA0342C1F8802000F1700181
:1053E00061642168D1F88020A36B22F0706242EAE8
:1053F0000362C1F8802000F1B00100F5C472A1641D
:10540000E26400F5187100F51E72216562650146BF
:1054100000F55472002301E041F8043B9142FBD3B4
:10542000A3650021696001202870002070BD000084
:1054300000640040006500400068004000A4004097
:1054400050A70040006C0040A0AA0040206881697D
:1054500021F010018161FCF73FBE70B500F15C02E4
:105460001378012B18BF022B1BD14B684C690D69B7
:10547000CE688A680968920749B9006C42EAC66238
:1054800042EA054200EB83002243026007E0406CE1
:1054900000EBC300224345EA4675056042600020E8
:1054A00070BD506840F002005060012070BD30B502
:1054B00000F15C042578012D10D10068039CD0F820
:1054C0008050AD0944EA851444EA011444EA820498
:1054D00044EA4304C0F88040002030BD606840F0DA
:1054E00004006060012030BD486840F0040048605E
:1054F0000120704700F15C010A78012A09D10223DA
:105500000B70006882695208520082610020486076
:105510007047E9E7F0B500F15C031C78022C4ED12E
:105520000468D4F8C450AE0203D5586840F4007043
:1055300048E0D4F8C4300E698C68C3F301452643B3
:105540004B680C68002B0EBF46EA8446264346F0A3
:1055500080460B6ACF698C6947EA03674B6927432A
:10556000CC681F4347EA0447446D482313FB0543B7
:105570001E605F60083300240FF2C83612E017196E
:10558000241D97F802E097F803C04FEA0E4E4EEA4A
:105590000C6E97F801C03F784EEA0C2E47EA0E07D2
:1055A00043F8047BCF68F75DBC42E8D30268012171
:1055B00001FA05F5C2F8CC5085650020F0BD5868A9
:1055C00040F0080058600120F0BDF0B500F15C0427
:1055D00000252678022E76D14826402913D1076867
:1055E0008037D7F810C01CF00F0F15D03C69C4F3FA
:1055F0000064002C1FBF3C68C4F34024002C01252C
:105600003C69876C18E0D0F800C00CF18007D7F82F
:1056100018E01EF00F0F03D1606840F4807055E071
:10562000BC69C4F30064002C1FBF3C68C4F30024B1
:10563000002C0125BC69C76CC4F30124651916FB55
:105640000576346814F08044546037680CBFC7F3A3
:105650008A4727F060471760346804F0005494606C
:1056600056F8047B07F0004717613468A4B2D46190
:105670003468C4F30344D460376807F48017576173
:10568000346804F4001494613468C4F3066414624A
:10569000002456F8047BFF0F57620FF2A82704E09E
:1056A00016F804C003F804C0641CD2F80CC017F844
:1056B0000CE07445F4D30068943040290CBF0560B9
:1056C00085600020F0BD606840F008006060012047
:1056D000F0BD0068903040290CBF0068806800F081
:1056E0000F007047F0B5034603F15C000C460178EB
:1056F000012918BF02296AD11E68B56D14F0070F81
:1057000005F0020105F0010000D0E0B114F0380FFF
:1057100000D0C1B114F4E07F01D06F0713D514F4A9
:10572000F05F01D02F070ED514F4604F01D0EF06C3
:1057300009D514F4403F01D0AF0604D514F47C0F12
:1057400007D06F0605D4D6F85CC04CF0010CC6F843
:105750005CC014F0070F18BF00281DD114F0380FDB
:1057600018BF002918D114F4E07F01D0680713D4C2
:1057700014F4F05F01D028070ED414F4604F01D068
:10578000E80609D414F4403F01D0A80604D414F468
:105790007C0F06D0680604D51868C16D41F002017F
:1057A000C165200605D51868D0F8DC101143C0F893
:1057B000DC10E00505D51868D0F8E0100A43C0F801
:1057C000E0201868416D0C4344650020F0BDFFE700
:1057D000416841F0020141600120F0BD2DE9F84F20
:1057E00004462068D0F850A0416DD0F850B001EACE
:1057F0000A0101F4E05A416DD0F8508001EA0B0132
:1058000001F0070B416D056D01EA080101F0380850
:10581000416DD0F850900D40416D466D076D01EA25
:10582000090101F46029790605F4710506D57206AF
:1058300004D540210165204600F0B4F9F8050AD5E9
:10584000F10508D5206800F1D8024FF4807300F00C
:1058500072F800F0A8F9BAF1000F06D02068C0F87D
:1058600050A05146204600F09FF9BBF1000F06D032
:105870002068C0F850B05946204600F06BF8B8F1E7
:10588000000F06D02068C0F850804146204600F046
:105890008CF9B80508D5B10506D522684FF400701B
:1058A0001065204600F082F9380609D5310607D583
:1058B000206800F1D402802300F03DF800F077F971
:1058C000B80408D5B10406D522684FF4005010651D
:1058D000204600F06DF9380408D5310406D5226859
:1058E0004FF400401065204600F063F9780409D5B4
:1058F000710407D522684FF480401065206E40F097
:1059000080002066B9F1000F06D02068C0F85090E2
:105910004946204600F04EF925B120680565216E04
:105920000D432566206E20B12046BDE8F24F00F001
:1059300042B9BDE8F18F11689268036511402046B5
:10594000704700000001020304050607080C10144C
:1059500018203040F8B5CA0705462FD5184E40210B
:105960003046FFF7B6FE0400164F1FE07878042893
:105970001BDC3878401CC1B20429C8BF0020C0B26B
:105980002C2148433844021D4021936A3046FFF7DA
:105990001CFE7878042808DC3978491CCAB2042A2D
:1059A000C8BF0021401C39707870641EDED12846C3
:1059B000BDE8F84000220121FFF794BEF1BD0000D0
:1059C0000C0B0020C4080020417809B90020704762
:1059D0000278921D511AC9B20429C8BF491FC9B221
:1059E0002C2251430844001D7047417809B1491EDB
:1059F0004170704780B54A6AFFF78CFD00B1012005
:105A000002BD1CB50446FFF728FD08B1012016BDF4
:105A1000012000900123022202212046FFF747FDCA
:105A2000002016BD002808BFFDF754BC70470000D9
:105A30001CB5082A00D205E007E01CB5082A00D2F0
:105A400000E002E06FF0150016BD0A784B788C7804
:105A500042EA0322CB7842EA044242EA036201921C
:105A600001AA136840F8043B4A790B798C79C9790B
:105A700043EA022343EA044343EA016300930360D9
:105A8000002016BD3EB5082A04460D4602D26FF02E
:105A900015003EBD082100F08FF82968009100989C
:105AA0002178014321700098617841EA10216170EA
:105AB000A078009940EA1140A0700099E07840EA8F
:105AC0001160E07001A9281D02680A60019822791E
:105AD000617902432271019841EA10216171A07934
